{
  "contractName": "Lottery",
  "abi": [
    {
      "constant": true,
      "inputs": [],
      "name": "manager",
      "outputs": [
        {
          "name": "",
          "type": "address"
        }
      ],
      "payable": false,
      "stateMutability": "view",
      "type": "function"
    },
    {
      "constant": true,
      "inputs": [
        {
          "name": "",
          "type": "uint256"
        }
      ],
      "name": "players",
      "outputs": [
        {
          "name": "",
          "type": "address"
        }
      ],
      "payable": false,
      "stateMutability": "view",
      "type": "function"
    },
    {
      "inputs": [],
      "payable": false,
      "stateMutability": "nonpayable",
      "type": "constructor"
    },
    {
      "constant": false,
      "inputs": [],
      "name": "enter",
      "outputs": [],
      "payable": true,
      "stateMutability": "payable",
      "type": "function"
    },
    {
      "constant": false,
      "inputs": [],
      "name": "pickWinner",
      "outputs": [],
      "payable": false,
      "stateMutability": "nonpayable",
      "type": "function"
    },
    {
      "constant": true,
      "inputs": [],
      "name": "getPlayers",
      "outputs": [
        {
          "name": "",
          "type": "address[]"
        }
      ],
      "payable": false,
      "stateMutability": "view",
      "type": "function"
    }
  ],
  "bytecode": "0x6060604052341561000f57600080fd5b336000806101000a81548173ffffffffffffffffffffffffffffffffffffffff021916908373ffffffffffffffffffffffffffffffffffffffff1602179055506106a98061005e6000396000f30060606040526000357c0100000000000000000000000000000000000000000000000000000000900463ffffffff168063481c6a75146100695780635d495aea146100be5780638b5b9ccc146100d3578063e97dcb621461013d578063f71d96cb1461014757600080fd5b341561007457600080fd5b61007c6101aa565b604051808273ffffffffffffffffffffffffffffffffffffffff1673ffffffffffffffffffffffffffffffffffffffff16815260200191505060405180910390f35b34156100c957600080fd5b6100d16101cf565b005b34156100de57600080fd5b6100e661036b565b6040518080602001828103825283818151815260200191508051906020019060200280838360005b8381101561012957808201518184015260208101905061010e565b505050509050019250505060405180910390f35b6101456103ff565b005b341561015257600080fd5b610168600480803590602001909190505061047a565b604051808273ffffffffffffffffffffffffffffffffffffffff1673ffffffffffffffffffffffffffffffffffffffff16815260200191505060405180910390f35b6000809054906101000a900473ffffffffffffffffffffffffffffffffffffffff1681565b60008060009054906101000a900473ffffffffffffffffffffffffffffffffffffffff1673ffffffffffffffffffffffffffffffffffffffff163373ffffffffffffffffffffffffffffffffffffffff1614151561022c57600080fd5b6000809054906101000a900473ffffffffffffffffffffffffffffffffffffffff1673ffffffffffffffffffffffffffffffffffffffff163373ffffffffffffffffffffffffffffffffffffffff1614151561028757600080fd5b6001805490506102956104b9565b81151561029e57fe5b0690506001818154811015156102b057fe5b906000526020600020900160009054906101000a900473ffffffffffffffffffffffffffffffffffffffff1673ffffffffffffffffffffffffffffffffffffffff166108fc3073ffffffffffffffffffffffffffffffffffffffff16319081150290604051600060405180830381858888f19350505050151561033257600080fd5b60006040518059106103415750595b90808252806020026020018201604052506001908051906020019061036792919061054b565b5050565b6103736105d5565b60018054806020026020016040519081016040528092919081815260200182805480156103f557602002820191906000526020600020905b8160009054906101000a900473ffffffffffffffffffffffffffffffffffffffff1673ffffffffffffffffffffffffffffffffffffffff16815260200190600101908083116103ab575b5050505050905090565b662386f26fc10000341015151561041557600080fd5b6001805480600101828161042991906105e9565b9160005260206000209001600033909190916101000a81548173ffffffffffffffffffffffffffffffffffffffff021916908373ffffffffffffffffffffffffffffffffffffffff16021790555050565b60018181548110151561048957fe5b90600052602060002090016000915054906101000a900473ffffffffffffffffffffffffffffffffffffffff1681565b60004442600160405180848152602001838152602001828054801561053357602002820191906000526020600020905b8160009054906101000a900473ffffffffffffffffffffffffffffffffffffffff1673ffffffffffffffffffffffffffffffffffffffff16815260200190600101908083116104e9575b50509350505050604051809103902060019004905090565b8280548282559060005260206000209081019282156105c4579160200282015b828111156105c35782518260006101000a81548173ffffffffffffffffffffffffffffffffffffffff021916908373ffffffffffffffffffffffffffffffffffffffff1602179055509160200191906001019061056b565b5b5090506105d19190610615565b5090565b602060405190810160405280600081525090565b8154818355818115116106105781836000526020600020918201910161060f9190610658565b5b505050565b61065591905b8082111561065157600081816101000a81549073ffffffffffffffffffffffffffffffffffffffff02191690555060010161061b565b5090565b90565b61067a91905b8082111561067657600081600090555060010161065e565b5090565b905600a165627a7a72305820fbc7f6ca2cf786a4b70c7dd985ad808b8a2e33ed9381e7e872eace6694787b7c0029",
  "source": "pragma solidity ^0.4.17;\n\ncontract Lottery {\n  address public manager;\n  address[] public players;\n\n  function Lottery() public  {\n    manager=msg.sender;\n  }\n\n  function enter() public payable {\n      require(msg.value>=0.01 ether);\n      players.push(msg.sender);\n  }\n\n  function random() private  view returns(uint){\n      return uint(keccak256(block.difficulty,now,players));\n  }\n\n  modifier adminOnly(){\n      require(msg.sender==manager);\n      _;\n  }\n\n  function pickWinner() public adminOnly {\n      require(msg.sender==manager);\n      uint winnerIndex = random() % players.length;\n      players[winnerIndex].transfer(this.balance);\n      players=new address[](0);\n  }\n\n  function getPlayers() public view  returns(address[]){\n      return players;\n  }\n}\n",
  "sourcePath": "E:\\Blockchain\\Course\\LotteryContract\\contracts\\lottery.sol",
  "compiler": {
    "name": "solc",
    "version": "0.4.17+commit.bdeb9e52.Emscripten.clang"
  },
  "schemaVersion": "3.4.11",
  "updatedAt": "2023-04-27T18:37:25.744Z",
  "networkType": "ethereum",
  "devdoc": {
    "methods": {}
  },
  "userdoc": {
    "methods": {}
  }
}